:100000000C9462000C947F000C947F000C947F0091
:100010000C947F000C947F000C947F000C9475016D
:100020000C947F000C947F000C947F000C947F0054
:100030000C947F000C947F000C947F000C947F0044
:100040000C942B010C947F000C947F000C947F0087
:100050000C947F000C947F000C947F000C947F0024
:100060000C947F000C947F00000000002300260009
:10007000290000000008000201000003040700003E
:100080000000000000000200000000250028002BF6
:100090000000000000240027002A000404040404D7
:1000A0000404040202020202020303030303030125
:1000B00002040810204080010204081020010204FC
:1000C0000810200011241FBECFEFD8E0DEBFCDBF47
:1000D00011E0A0E0B1E0E0EEF8E002C005900D9282
:1000E000AA31B107D9F721E0AAE1B1E001C01D9220
:1000F000A433B207E1F70E94D1010C946E040C9472
:100100000000833081F028F4813099F08230A9F02A
:1001100008958730A9F08830C9F08430B1F4809117
:1001200080008F7D03C0809180008F778093800056
:10013000089584B58F7784BD089584B58F7DFBCFF6
:100140008091B0008F778093B00008958091B000C7
:100150008F7DF9CFCF93DF9390E0FC01E155FF4F06
:10016000249185569F4FFC0184918823D1F090E023
:10017000880F991FFC01EF56FF4FA591B491FC0128
:10018000E957FF4FC591D491623071F49FB7F8944D
:100190003C91822F809583238C93E8812E2B28839A
:1001A0009FBFDF91CF9108958FB7F894EC912E2BDC
:1001B0002C938FBFF6CFCF93DF93909100018913DB
:1001C0000BC0E6E8F0E0E4919FEF90930001E1308E
:1001D00059F138F1E23071F1282F30E0F901EE5891
:1001E000FF4F8491F901E155FF4FD491F901E55694
:1001F000FF4FC491CC2391F081110E948100EC2F1C
:10020000F0E0EE0FFF1FE957FF4FA591B4918FB7B4
:10021000F894EC91D095DE23DC938FBFDF91CF91E2
:10022000089510926E00D8CF90916F009D7F9093AB
:100230006F00D2CF909170009D7F9093700091E0FD
:100240009093B0009091B100987F94609093B1002A
:100250001092B300C1CF1F920F920FB60F921124CC
:100260002F933F938F939F93AF93BF9380913001D0
:1002700090913101A0913201B091330130912F0161
:1002800023E0230F2D3758F50196A11DB11D2093B2
:100290002F018093300190933101A0933201B093EC
:1002A000330180912B0190912C01A0912D01B091EF
:1002B0002E010196A11DB11D80932B0190932C015D
:1002C000A0932D01B0932E01BF91AF919F918F917B
:1002D0003F912F910F900FBE0F901F90189526E819
:1002E000230F0296A11DB11DD2CF1F920F920FB600
:1002F0000F9211242F933F934F935F936F937F93AC
:100300008F939F93AF93BF93EF93FF9380911F01C0
:1003100090912001A0912101B0912201892B8A2B7B
:100320008B2BD1F190911A01E0911B01F0911C01EE
:1003300080818927808380911F0190912001A09165
:100340002101B0912201181619061A061B069CF409
:1003500080911F0190912001A0912101B091220173
:100360000197A109B10980931F0190932001A093E7
:100370002101B0932201FF91EF91BF91AF919F9125
:100380008F917F916F915F914F913F912F910F903E
:100390000FBE0F901F901895809100010E94DB0006
:1003A000EACF789484B5826084BD84B5816084BDD1
:1003B00085B5826085BD85B5816085BD80916E0003
:1003C000816080936E001092810080918100826034
:1003D0008093810080918100816080938100809171
:1003E00080008160809380008091B1008460809360
:1003F000B1008091B00081608093B00080917A005C
:10040000846080937A0080917A00826080937A0081
:1004100080917A00816080937A0080917A00806870
:1004200080937A001092C100C9E1D1E071E1272EDA
:1004300071E0372E62E0F10181911F010E94AA0054
:10044000C215D305B9F761E088E00E94AA008824AC
:100450008A94982C540101E011E0C1E1D1E0D12C43
:10046000C12C299130E0F901EE58FF4F8491F90138
:10047000E155FF4FE490F901E556FF4FF490F1107C
:10048000C0C0F801C080D1800E5F1F4F2C163D0602
:1004900041F7C114D10409F4DCC180910001883016
:1004A00009F0BFC0E6E8F0E0C491C7FDA2C061E07A
:1004B00088E00E94AA00CC2319F0C23009F07CC168
:1004C000F12CE12C60E072E18AE790E0A70196014F
:1004D0000E942D0429013A01DA01C9010197A109FD
:1004E000B1098F3F9105A105B10509F00CF44BC18D
:1004F00060E472E48FE090E0A70196010E942D0471
:100500002150310941095109C23009F0FDC082E092
:100510002F3F31054105510509F00CF45BC060E93E
:1005200070ED83E090E0A70196010E942D04215018
:1005300031094109510983E02F3F3105410551053A
:1005400009F00CF447C068E478EE81E090E0A70180
:1005500096010E942D04215031094109510984E07E
:100560002F3F310541055105A9F1A4F164E274EF73
:1005700080E090E0A70196010E942D0421503109EE
:100580004109510985E02F3F31054105510511F120
:1005900008F162E17AE780E090E0A70196010E940D
:1005A0002D04215031094109510986E02F3F3105C1
:1005B0004105510579F070F08AE07594679457947D
:1005C00047948A95D1F7A30192012150310941093D
:1005D000510987E09091B100987F892B8093B100F9
:1005E000C13009F414C1C23009F423C1CC2309F489
:1005F000D2C080E090E0892B09F42DCF0E9400004A
:100600002ACF81110E948100EF2DF0E0EE0FFF1F35
:10061000E859FF4FA591B491EC91EE2209F431CF46
:1006200033CF8F3F31F788E080930001E6E8F0E0B8
:10063000C491CF3FF1F2C13029F150F0C23009F43A
:1006400040C0C7FDD6CF61E088E00E94AA0035CF48
:1006500014BC15BC84B5826084BD85B5816085BD40
:10066000E3EAF0E08491E82FF0E0EE0FFF1FE95796
:10067000FF4F85919491E7EBF0E0849180931E0108
:10068000C0E015CF1092800010928100809181000F
:1006900088608093810080918100816080938100D7
:1006A000E3EAF0E08491E82FF0E0EE0FFF1FE95756
:1006B000FF4F85919491E7EBF0E0849180931D01C9
:1006C000F6CE1092B0001092B1008091B00082601E
:1006D0008093B0008091B10081608093B100E3EA23
:1006E000F0E08491E82FF0E0EE0FFF1FE957FF4F95
:1006F0008591949190931C0180931B01E7EBF0E0AE
:10070000849180931A01D3CE2F3F310541055105C5
:1007100009F00CF44FC068E478EE81E090E0A701A6
:1007200096010E942D04215031094109510984E0AC
:10073000C11129CF83E02F3F31054105510539F122
:1007400034F162E17AE780E090E0A70196010E942F
:100750002D04215031094109510984E02F3F310511
:1007600041055105A1F098F09AE07594679457946B
:1007700047949A95D1F7A30192012150310941097B
:10078000510985E004C09C0181E0C11123CF95B5DA
:10079000987F892B85BD27BD8092270190922801E3
:1007A000A0922901B0922A0180916E00826080930C
:1007B0006E001FCF82E0E9CFF12CE12C60E072E106
:1007C0008AE790E0A70196010E942D04215031098B
:1007D0004109510991E021153105F1E04F0751051B
:1007E0006CF068E478EE81E090E0A70196010E9449
:1007F0002D04215031094109510993E0C13009F01C
:10080000EFCE80918100887F892B80938100309387
:100810008900209388008092230190922401A09265
:100820002501B092260180916F00826080936F0055
:10083000E0CE2093B30080921F0190922001A092FD
:100840002101B0922201809170008260809370003B
:10085000D0CE88E00E94DB00CCCE052E97FB1EF4A4
:1008600000940E94440457FD07D00E944C0407FCEA
:1008700003D04EF40C944404509540953095219546
:100880003F4F4F4F5F4F08959095809570956195BC
:100890007F4F8F4F9F4F0895A1E21A2EAA1BBB1BBB
:1008A000FD010DC0AA1FBB1FEE1FFF1FA217B3073C
:1008B000E407F50720F0A21BB30BE40BF50B661F52
:1008C000771F881F991F1A9469F760957095809516
:1008D00090959B01AC01BD01CF010895F894FFCF25
:1008E000FF2100250029002C00310037003E004187
:0A08F000000C0B0A090706050400BE
:00000001FF
